:10000000C1C10000DDC10000DBC10000D9C100009A
:10001000D7C10000D5C10000D3C10000D1C100008C
:10002000CFC10000CDC100000C94DF08C9C10000A1
:10003000C7C10000ADC20000C3C10000C1C10000C3
:10004000BFC10000BDC10000BBC10000B9C10000BC
:10005000B7C100004CC20000B3C10000B1C1000034
:10006000AFC10000ADC10000ABC10000A9C10000DC
:10007000A7C10000A5C10000A3C10000A1C10000EC
:100080009FC100009DC100009BC1000099C10000FC
:1000900097C1000095C100001B5B33316D4465764C
:1000A00069636520456E756D65726174696F6E2058
:1000B0004572726F72210D0A202D2D204572726FCC
:1000C0007220436F64652025640D0A202D2D205376
:1000D0007562204572726F7220436F6465202564DB
:1000E0000D0A202D2D20496E205374617465202542
:1000F000640D0A1B5B33376D001B5B33316D486F3A
:100100007374204D6F6465204572726F72210D0A01
:10011000202D2D204572726F7220436F646520255B
:10012000640D0A1B5B33376D00555342204D6F75CC
:10013000736520656E756D65726174696F6E20738D
:1001400075636365737366756C0D0A001B5B3331F1
:100150006D436F6E74726F6C204572726F722028DF
:100160005365742070726F746F636F6C29210D0A70
:10017000202D2D204572726F7220436F64653A20E6
:1001800025640D0A1B5B33376D001B5B33316D43F8
:100190006F6E74726F6C204572726F722028536597
:1001A0007420636F6E66696775726174696F6E291A
:1001B000210D0A202D2D204572726F7220436F642D
:1001C000653A2025640D0A1B5B33376D00202D2D09
:1001D000204572726F7220436F64653A2025640D6A
:1001E0000A1B5B33376D001B5B33316D496E7661E3
:1001F0006C696420446576696365210D0A001B5BA8
:1002000033316D436F6E74726F6C204572726F7212
:10021000202847657420636F6E6669677572617424
:10022000696F6E29210D0A0047657474696E672035
:10023000636F6E66696775726174696F6E20646161
:1002400074612066726F6D206465766963652E2E19
:100250002E0D0A001B5B33326D55534220446576E8
:100260006963652064657461636865640D0A1B5B7E
:1002700033376D001B5B33326D5553422044657636
:100280006963652061747461636865640D0A1B5B52
:1002900033376D0044504920646976696465207382
:1002A0007769746368206973204F46460D0A0044DD
:1002B000504920646976696465207377697463685E
:1002C000206973204F4E0D0A0052617465206C69DD
:1002D0006D697420737769746368206973204F4671
:1002E000460D0A0052617465206C696D6974207353
:1002F0007769746368206973204F4E0D0A001B5B99
:1003000033336D687474703A2F2F7777772E776157
:100310006974696E67666F726672696461792E636B
:100320006F6D0D0A1B5B33376D001B5B33336D281C
:100330006329323031372D323032302053696D6FBE
:100340006E20496E6E730D0A1B5B33376D001B5BAD
:1003500033336D536D616C6C794D6F7573653220FD
:1003600056312E33202D2053657269616C206465EF
:1003700062756720636F6E736F6C650D0A1B5B336C
:10038000376D000011241FBECFEFD0E2DEBFCDBF1E
:1003900011E0A0E0B1E0E2E5FDE100E00BBF02C04A
:1003A00007900D92AA31B107D9F721E0AAE1B1E097
:1003B00001C01D92A834B207E1F714D30C94A70E24
:1003C0001FCEFC018181843041F48581833029F482
:1003D0008781823011F480E0089582E00895FC0165
:1003E0008181853021F0843021F082E0089580E021
:1003F000089581E00895CF92DF92EF92FF920F93DC
:100400001F93CF93DF93CDB7DEB7C450D2400FB662
:10041000F894DEBF0FBECDBFAE014F5F5F4FCD5F23
:10042000DD4F59834883C350D24020E032E0BE0103
:100430006F5F7D4F81E074D7853009F444C086300A
:1004400029F0811105C0C12CD12C21C013E03EC080
:1004500011E03CC04FEE51E0BE016D5F7D4FCE011B
:100460008F5F9D4FB6D7182F8823A9F041EE51E03A
:10047000BE016D5F7D4FCE018F5F9D4FAAD7811169
:1004800024C0CD5FDD4FC880D980C350D240C11495
:10049000D10401F7EBCFCD5FDD4FE880F980C35089
:1004A000D240F701428147FFF2CFE114F10479F322
:1004B0002481358101E063E081E854D5F70186812C
:1004C0008093AD0003C012E001C014E0812FCC5F27
:1004D000DD4F0FB6F894DEBF0FBECDBFDF91CF91D9
:1004E0001F910F91FF90EF90DF90CF9008951F9292
:1004F0000F920FB60F9211248F939F93809120013A
:100500009091210118161906CCF5809125018111D1
:100510000DC0809124018150809324018091240199
:1005200087FF0FC083E0809324010BC080912401DA
:100530008F5F8093240180912401843014F0109205
:10054000240180912401811101C0409A80912401ED
:10055000813009F4429A80912401823009F4409854
:1005600080912401833009F4429880912001909178
:1005700021010197909321018093200180911D0119
:1005800087BD9F918F910F900FBE0F901F90189570
:100590001F920F920FB60F9211248F939F93809109
:1005A0001E0190911F0118161906CCF580912301A8
:1005B00081110DC080912201815080932201809190
:1005C000220187FF0FC083E0809322010BC080913E
:1005D00022018F5F8093220180912201843014F0E8
:1005E0001092220180912201833009F44198809178
:1005F0002201823009F4439880912201813009F46C
:10060000419A80912201811101C0439A80911E017B
:1006100090911F01019790931F0180931E0180917B
:100620001C018093B3009F918F910F900FBE0F908C
:100630001F90189584B7877F84BF0FB6F894A8954C
:1006400080916000886180936000109260000FBE0E
:1006500090E080E80FB6F894809361009093610079
:100660000FBE389A3A9A399A3B9A409842984198E4
:1006700043983C983D983E9844984598469857989A
:100680005F9A0C98149A8AB18E6F8AB98AB18D6F6D
:100690008AB98AB18B6F8AB98AB1876F8AB98AB1F0
:1006A0008F6E8AB98AB18F6D8AB98AB18F6B8AB918
:1006B000589859985A985B985C985D985E9864D55C
:1006C00087E690E09093CD008093CC0086E0809305
:1006D000CA001092C80088E18093C900539A5A9AC0
:1006E00080E090E012D28EE493E00E94C90B8AE28F
:1006F00093E00E94C90B8EEF92E00E94C90B4F99C4
:1007000003C084EE92E002C089EC92E00E94C90B23
:10071000049903C08FEA92E002C084E992E00C944D
:10072000C90B17BC82E084BD95E095BD80936E0037
:100730001092B3008093B00097E09093B100809343
:1007400070000895362F181644F5222399F063E0BF
:10075000CCD781110FC0E32FF0E0E65EFE4F908111
:1007600093301CF0108281E005C097FD10829081CB
:100770009F5F9083082E000C990B311107C02091C8
:10078000200130912101820F931F2CC020911E0166
:1007900030911F01820F931F32C08823A9F12223B9
:1007A000A1F063E0A2D7811110C0E32FF0E0E65E74
:1007B000FE4F90819E3F1CF410828FEF06C01916E9
:1007C0000CF41082908191509083082E000C990BAC
:1007D00031110DC02091200130912101B901681B18
:1007E000790BCB01909321018093200119C02091B6
:1007F0001E0130911F01B901681B790BCB01909349
:100800001F0180931E011AC0611105C010922101C1
:100810001092200105C010921F0110921E010EC0FF
:10082000809120019091210185369105ACF084E6FC
:1008300090E090932101809320010EC080911E01D1
:1008400090911F018536910534F184E690E09093F4
:100850001F0180931E011FC0609120017091210132
:100860006038710520F461157105D1F002C06FE7A1
:1008700070E080E197E246D786E0769567958A95A5
:10088000E1F761507109442369F06830710550F453
:1008900068E070E007C060911E0170911F01E0CF19
:1008A0004111F6CF862F0895FF920F931F93CF9398
:1008B000DF9300D01F92CDB7DEB7809141018B301E
:1008C00009F087C019B100B1FF24F394F092A7009A
:1008D0008091A9008F7B8093A9008091A60080FF62
:1008E00073C08091A60085FF6AC0589A40E050E02E
:1008F00063E070E0CE010196E6D28A8118165CF4BE
:1009000090912501911113C01092210110922001A4
:10091000F09225010CC0882351F09091250191306F
:1009200031F41092210110922001109225019B8137
:10093000191664F490912301911114C010921F01B3
:1009400010921E0191E0909323010CC0992351F065
:1009500090912301913031F410921F0110921E01E9
:1009600010922301111F1127111F0295017091E0B0
:100970000927202F412F60E0E5DE80931D01202F05
:10098000412F61E08B81DEDE80931C01898180FD37
:1009900003C044983C9802C03C9A4498898182FDE7
:1009A00003C045983D9802C03D9A4598898181FDD4
:1009B00003C046983E9802C03E9A46985898809147
:1009C000A6008E778093A6008091A9008064809312
:1009D000A9000F900F900F90DF91CF911F910F9171
:1009E000FF90089527DE9DDE78945EDF69D6FDCF07
:1009F00084E792E0CEC684E592E0CBC6CF9388E24E
:100A000092E0C7D6F8DCC82F882369F0813019F44A
:100A10008EEF91E002C087EE91E0BBD61F92CF939C
:100A20008DEC91E008C081E024D6882369F01F9204
:100A30008F938AE891E09F938F9384D60F900F90C5
:100A40000F900F90CF91089588E0E1E0F1E0A9E3E5
:100A5000B1E001900D928A95E1F71092A70080E035
:100A600090E010D5882371F01F928F938CE491E071
:100A70009F938F9367D60F900F900F900F9080E009
:100A8000CF91F7C589E291E0CF9183C6C82F14D3E7
:100A90001F92CF9389EF90E09F938F9353D60F903F
:100AA0000F900F900F90FFCF909141011F929F9355
:100AB0001F926F931F928F9388E990E09F938F937B
:100AC00041D68DB79EB708960FB6F8949EBF0FBE5D
:100AD0008DBF08959091C80095FFFCCF8093CE0004
:100AE00080E090E008958091C80087FF08C0809161
:100AF000C80087FF07C08091CE0090E008958EEF78
:100B00009FEF08958FEF9FEF0895FC01892B59F413
:100B100089E291E0909343018093420190934501D3
:100B200080934401FC018EE0DF011D928A95E9F774
:100B300083E083838AE695E09187808783E795E069
:100B400093878287089580919E0081709091A00084
:100B50009D7F9093A00090919E00926090939E0044
:100B600090919E0091FDFCCF90919E00916090939A
:100B70009E00109237019091A00090722091A000E9
:100B80002F7D2093A00020919F002F7D20939F0018
:100B90002AE030919F0035FF0BC020919F002F7DF0
:100BA00020939F0020919F002D7F20939F0008C0DD
:100BB000EFE9FFE03197F1F700C00000215049F75D
:100BC000992329F09091A00090629093A000811148
:100BD00005C080919E008E7F80939E008091A00032
:100BE00082608093A000089520919E0021709091D2
:100BF000A00090723091A0003F7D3093A000309112
:100C00009F003F7D30939F0030919E003160309374
:100C10009E00882339F130919F0035FF06C0309146
:100C20009F003F7D30939F008150309141013130D2
:100C3000C1F03091A60034FF09C01092F5008091F8
:100C4000A6008F7E8093A60082E00CC03091A600A3
:100C500031FFDFCF8091A6008D7F8093A60083E0D7
:100C600001C081E0211105C020919E002E7F2093BC
:100C70009E00992329F09091A00090629093A0008B
:100C800008950F931F93CF93DF93CDB7DEB72897C7
:100C90000FB6F894DEBF0FBECDBF80914101853005
:100CA00009F49CC068F48230E1F118F48823D9F08B
:100CB000FFC0833009F43FC0843009F467C0F8C036
:100CC000873009F4A6C008F496C0883009F4BFC084
:100CD000893009F0EDC081E08093A1008AE0809323
:100CE00041018CDEE5C0009127011091280101151A
:100CF000110509F4DDC081E077DF882331F09091A0
:100D000026019093410191E0C5C001501109109353
:100D1000280100932701012B09F0CAC08091260108
:100D200007C088EE93E0909328018093270183E029
:100D300080934101BDC080912701909128019C01C1
:100D4000215031093093280120932701892B39F054
:100D50008FE99FE00197F1F700C00000A9C07798E4
:100D60008091D80080618093D8008091DD008B7FD6
:100D70008093DD008091D70080618093D7008091BF
:100D8000DD0082608093DD0084E0D2CF80919F00FF
:100D900080FF8EC080919F008E7F80939F00809106
:100DA0009F008D7F80939F008091DF008D7F8093D7
:100DB000DF008091DE0082608093DE0080919E00E3
:100DC000816080939E0036D11092410184E690E0CC
:100DD000909328018093270185E00AC0B4DE109229
:100DE000410188EC90E0909328018093270186E0F0
:100DF000809326015DC001E020E430E040E060E047
:100E000080E0B0D0811103C080E094E043C087E06F
:100E10008FCF88E0E9E0F1E0A9E3B1E001900D9225
:100E20008A95E1F71092A700CE0101962BD381118C
:100E300030C088858093000186DE1092410188ECE5
:100E400090E0909328018093270188E0D1CF2091F2
:100E5000000130E001E040E060E080E083D08823E2
:100E600099F288E0E1E1F1E0A9E3B1E001900D92AF
:100E70008A95E1F780E090E005D381110AC01092D5
:100E8000410184E690E0909328018093270189E056
:100E9000AFCF93E020914101213051F0682F892F8D
:100EA00003DE8091DD0081608093DD00A4DD1CD134
:100EB00028960FB6F894DEBF0FBECDBFDF91CF915D
:100EC0001F910F910895CF92DF92EF92FF920F93AF
:100ED0001F93CF93DF93EC018B017A018091AA00DD
:100EE0008F7C80618093AA00B9D0811132C0E11457
:100EF000F10439F0F70180819181081B190BC80FAB
:100F0000D91FC12CD12C0115110511F18091A6001A
:100F100085FD15C08091A6008E778093A600E11410
:100F2000F10449F0F70180819181C80ED91ED18268
:100F3000C08284E00EC092D0882329F30AC0809139
:100F4000AF00899301501109FFEFCF1ADF0ADBCF01
:100F500080E0DF91CF911F910F91FF90EF90DF9094
:100F6000CF9008950F93F901382F3F7087FD02C08D
:100F700080E201C080E1373010F080E059C061119B
:100F800001C080E090E4699FB00111244F70642B90
:100F9000682B023010F0B6E001C0B2E0932F9093BE
:100FA000A700391313C048E050E080E04E175F07F8
:100FB00038F08295807F8B2BA62F50E070E00EC01A
:100FC0008530B9F38F5F440F551FF0CFA091AA0071
:100FD0008091AB007091AD005091AE0081FD07C0D3
:100FE0009F5F9730E1F63093A70081E021C0209108
:100FF000A9002E7F2093A9002091AB002D7F209384
:10100000AB004091A90041604093A900A093AA00C1
:101010008093AB007093AD005093AE008091A90017
:1010200080628093A9008091AC0087FDD9CFA5CFC5
:101030000F9108951092F80080E08093A70010921D
:10104000AE001092A6001092AB009091A9009E7F76
:101050009093A9008F5F873081F708954091A20097
:101060005091A30085E69091AA009073903129F4E5
:101070009091A60090FF05C019C09091A60092FD26
:1010800015C09091A60091FD13C09091410191303F
:1010900089F02091A2003091A3004217530719F361
:1010A000815011F0A901DFCF83E0089580E0089519
:1010B00081E0089582E0089575D07CD0E0EEF0E004
:1010C000808181608083E8EDF0E080818F7780838C
:1010D00019BCA7EDB0E08C918E7F8C9380818F7EC0
:1010E00080831092380108955DD064D08091D8003B
:1010F0008F778093D8008091D80080688093D80043
:101100008091D8008F7D8093D8008091D7008F7711
:101110008093D70084E189BD86E189BD09B400FED2
:10112000FDCF81E0809341011092370180E48093EC
:1011300000018091D80080648093D8008091DD0008
:1011400081608093DD008091DD0084608093DD000C
:101150008091D7008F7E8093D7006F9A779A809185
:10116000DE0081608093DE008091DE0084608093E9
:10117000DE008091E0008E7F8093E0008091D800B7
:1011800080618093D8000895E8EDF0E080818F7E43
:101190008083E7EDF0E080818160808381E080934F
:1011A0003801A2CFE8EDF0E080818C7F808310923F
:1011B000A00008951092DA0010929F0008951F92E7
:1011C0000F920FB60F9211240BB60F922F933F93ED
:1011D0004F935F936F937F938F939F93AF93BF933F
:1011E000EF93FF9380919F0085FF0AC08091A0003C
:1011F00085FF06C080919F008F7D80939F001BD14B
:1012000080919F0081FF15C08091A00081FF11C0D7
:1012100080919F008D7F80939F0080919F008E7FA3
:1012200080939F008091A0008D7F8093A000E3DBDE
:101230005BDF8091DF0081FF15C08091DE0081FFC0
:1012400011C08091DF008D7F8093DF0077988091BF
:10125000DD0081608093DD0080E018DCCCDB81E084
:10126000809341018091DF0080FF17C08091DE00F4
:1012700080FF13C08091DF008E7F8093DF0080911C
:10128000DE008E7F8093DE00B3DB8091A000826061
:101290008093A00082E0809341018091DF0082FF73
:1012A0000EC08091DE0082FF0AC08091DF008B7F3C
:1012B0008093DF0060E082E0F7DB9DDB15DFFF91CC
:1012C000EF91BF91AF919F918F917F916F915F91BE
:1012D0004F913F912F910F900BBE0F900FBE0F902B
:1012E0001F901895CF93DF93DC01EB01E881F98122
:1012F00020818D919C91119730E08217930708F41B
:101300009C01E20FF31FEB01F983E8838D919C911F
:101310001197821B930B8D939C93DF91CF9108952E
:10132000CF92DF92EF92FF920F931F93CF93DF93B1
:10133000CDB7DEB729970FB6F894DEBF0FBECDBF8D
:101340006B018A01790190E89093390196E09093BE
:101350003A0190E00197926090933C0180933B01A9
:1013600010923E0110923D0189E090E0909340017F
:1013700080933F011092A700CE01019683D0811186
:1013800019C08B819C81F60191838083E816F90650
:1013900070F09093400180933F01C80173D0811198
:1013A00009C0F8018181823021F480E003C085E02A
:1013B00001C086E029960FB6F894DEBF0FBECDBF00
:1013C000DF91CF911F910F91FF90EF90DF90CF9021
:1013D0000895AF92BF92CF92DF92EF92FF920F9358
:1013E0001F93CF93DF938C01EB016A01F801E0803A
:1013F000F180E114F10499F0A880B980BE01C80120
:1014000071DF88819981F6010995823079F3813005
:1014100039F4B982A882F801F182E08201C082E049
:10142000DF91CF911F910F91FF90EF90DF90CF90C0
:10143000BF90AF90089508951F93CF93DF93182F17
:10144000C9EED3E011110CC08091A60083FD15C038
:1014500081E0CADB811112C02197A1F784E00EC0A0
:10146000113029F48091A60080FFF2CF06C012301F
:1014700079F78091A60082FFEBCF80E0DF91CF91DA
:101480001F910895FF920F931F93CF93DF938C01C9
:1014900080919E008170F82EC0913F01D091400153
:1014A00080919E00816080939E0081E09DDB811190
:1014B000C9C08091AA008F7C8093AA001092F50089
:1014C0008091A6008F7E8093A6008091A9008F7BDB
:1014D0008093A900E9E3F1E081E491E02191209378
:1014E000AF008E179F07D1F78091A6008777809372
:1014F000A60080E0A1DF8111A5C08091A9008064D1
:101500008093A90081E070DB81119CC0809139013A
:1015100087FF4EC08091AA008F7C80618093AA00D3
:101520000115110509F03AC08091AA008F7C8062F4
:101530008093AA008091A9008F7B8093A90082E00C
:101540007BDF81117FC08091A6008B778093A600FE
:1015500082E072DF77C08091A9008F7B8093A90021
:1015600081E06ADF81116EC08091F6009091F700F2
:10157000892B11F4C0E0D0E0F8018F018091F600D2
:101580009091F700892B69F48091A9008064809381
:10159000A9008091A6008E778093A6002097D9F6A7
:1015A000C3CF209789F38091AF0081932197E5CF36
:1015B0000115110591F18091AA008F7C80628093C2
:1015C000AA008091A9008F7B8093A90082E02097D8
:1015D000E1F032DF811136C02091F6003091F70042
:1015E0008091000190E02817390748F40F5F1F4FE2
:1015F000F801319780818093AF00219769F780913E
:10160000A6008B778093A600E1CF16DF81111AC068
:101610008091A90080648093A9008091AA008F7CAA
:1016200080618093AA008091A9008F7B8093A9009C
:1016300081E002DF811106C08091A6008E77809341
:10164000A60080E09091A90090649093A900F11009
:1016500005C090919E009E7F90939E0091E0909394
:10166000A8001092A800DF91CF911F910F91FF90D9
:101670000895CF93C82F1092390189E080933A01E1
:101680008C2F90E090933C0180933B0110923E019F
:1016900010923D011092400110923F011092A7005C
:1016A00080E090E0EFDE811109C0C0933701C111E5
:1016B00002C09AE001C09BE090934101CF91089550
:1016C000CF93DF93C091A700CF708091AA00D82F4D
:1016D000D17080FDD0E81092A700D3DACD2BCF7067
:1016E000C093A700DF91CF91089587FB082E0626AF
:1016F00087FD819567FD619519D00EF4919507FCE2
:1017000081950895AA1BBB1B51E107C0AA1FBB1FEF
:10171000A617B70710F0A61BB70B881F991F5A957D
:10172000A9F780959095BC01CD010895991B79E0AA
:1017300004C0991F961708F0961B881F7A95C9F761
:10174000809508950F931F93CF93DF93CDB7DEB7A6
:10175000AE01495F5F4FDA016D917D91AD0102E409
:1017600011E0F80182819381DC0113962C9113978B
:10177000286013962C933ED0D8011296ED91FC91DF
:1017800013972381277F2383DF91CF911F910F919F
:1017900008950F931F93CF93DF938C01E091440141
:1017A000F0914501838181FF1BC0D0E0C0E0F801CA
:1017B00084916091440170914501DB011896ED918F
:1017C000FC911997882341F00995892B11F0DFEFDF
:1017D000CFEF0F5F1F4FEBCF8AE00995892B19F0F0
:1017E0008FEF9FEF02C08D2F9C2FDF91CF911F9124
:1017F0000F9108952F923F924F925F926F927F9236
:101800008F929F92AF92BF92CF92DF92EF92FF9210
:101810000F931F93CF93DF93CDB7DEB72B970FB600
:10182000F894DEBF0FBECDBF6C017B018A01FC01C5
:1018300017821682838181FFBFC1CE0101963C01D0
:10184000F6019381F70193FD859193FF81917F01CB
:10185000882309F4ADC1853239F493FD859193FF56
:1018600081917F01853221F4B60190E0D6D1E8CF95
:10187000912C212C312CFFE1F315D8F08B3279F02B
:1018800038F4803279F08332A1F4232D20611DC019
:101890008D3261F0803369F4232D216016C0832DD1
:1018A0008260382EE32DE4603E2E2AC0F32DF860CE
:1018B0001DC037FC2DC020ED280F2A3040F08E329D
:1018C000B9F436FC75C1232D2064322E19C036FEC2
:1018D00006C08AE0989E200D1124922E11C0EAE0E5
:1018E0002E9E200D1124222EF32DF0623F2E08C0D3
:1018F0008C3621F4832D8068382E02C0883641F45E
:10190000F70193FD859193FF81917F018111B3CF01
:10191000982F9F7D9554933028F40C5F1F4F9FE3C1
:1019200099830DC0833631F0833771F0833509F028
:1019300055C020C0F801808189830E5F1F4F882425
:101940008394912C530112C02801F2E04F0E511CD8
:10195000F801A080B18036FE03C0692D70E002C09E
:101960006FEF7FEFC5014ED14C018201F32DFF7760
:101970003F2E15C0280122E0420E511CF801A08024
:10198000B18036FE03C0692D70E002C06FEF7FEFBB
:10199000C5012DD14C01F32DF0683F2E820133FC9F
:1019A00019C0822D90E088169906A0F4B60180E255
:1019B00090E033D12A94F5CFF50137FC859137FEBD
:1019C00081915F01B60190E028D121102A9421E095
:1019D000821A91088114910479F7E1C0843611F0DC
:1019E000893639F5F80137FE07C06081718182813F
:1019F00093810C5F1F4F08C060817181072E000C1E
:101A0000880B990B0E5F1F4FF32DFF763F2E97FF2C
:101A100009C090958095709561957F4F8F4F9F4F2E
:101A2000F0683F2E2AE030E0A30133D1882E8618DB
:101A300044C0853731F4232D2F7EB22E2AE030E0CA
:101A400025C0932D997FB92E8F36C1F018F48835B3
:101A500079F0AEC0803719F0883721F0A9C0E92F9E
:101A6000E061BE2EB4FE0DC0FB2DF460BF2E09C098
:101A700034FE0AC0292F2660B22E06C028E030E0CE
:101A800005C020E130E002C020E132E0F801B7FEFD
:101A900007C060817181828193810C5F1F4F06C0F6
:101AA0006081718180E090E00E5F1F4FA301F1D053
:101AB000882E8618FB2DFF773F2E36FE0DC0232D76
:101AC0002E7FA22E891458F434FE0BC032FC09C0BC
:101AD000832D8E7EA82E05C0B82CA32C03C0B82C55
:101AE00001C0B92CA4FE0FC0FE01E80DF11D8081DC
:101AF000803321F49A2D997EA92E09C0A2FE06C03A
:101B0000B394B39404C08A2D867809F0B394A3FCEF
:101B100010C0A0FE06C0B21480F4280C922C9B18B2
:101B20000DC0B21458F4B60180E290E076D0B394C0
:101B3000F8CFB21418F42B1802C0982C212CA4FE54
:101B40000FC0B60180E390E068D0A2FE16C0A1FCF1
:101B500003C088E790E002C088E590E0B6010CC0C1
:101B60008A2D867851F0A1FE02C08BE201C080E28E
:101B7000A7FC8DE2B60190E050D0891430F4B60194
:101B800080E390E04AD09A94F8CF8A94F301E80D6C
:101B9000F11D8081B60190E040D08110F6CF222067
:101BA00009F44ECEB60180E290E037D02A94F7CF08
:101BB000F6018681978102C08FEF9FEF2B960FB6BB
:101BC000F894DEBF0FBECDBFDF91CF911F910F9173
:101BD000FF90EF90DF90CF90BF90AF909F908F904D
:101BE0007F906F905F904F903F902F900895FC01F1
:101BF0000590615070400110D8F7809590958E0F38
:101C00009F1F0895FC016150704001900110D8F7AA
:101C1000809590958E0F9F1F08950F931F93CF93DC
:101C2000DF93FB01238121FD03C08FEF9FEF2CC0C9
:101C300022FF16C046815781248135814217530700
:101C400044F4A081B1819D012F5F3F4F31832083F8
:101C50008C93268137812F5F3F4F3783268314C0B3
:101C60008B01EC01FB010084F185E02D0995892BA6
:101C7000E1F6D80116968D919C91179701961796CB
:101C80009C938E931697CE01DF91CF911F910F9168
:101C90000895FA01AA27283051F1203181F1E89402
:101CA0006F936E7F6E5F7F4F8F4F9F4FAF4FB1E04F
:101CB0003ED0B4E03CD0670F781F891F9A1FA11D4A
:101CC000680F791F8A1F911DA11D6A0F711D811D4B
:101CD000911DA11D20D009F468943F912AE0269F10
:101CE00011243019305D3193DEF6CF010895462F6F
:101CF0004770405D4193B3E00FD0C9F7F6CF462F50
:101D00004F70405D4A3318F0495D31FD40524193B8
:101D100002D0A9F7EACFB4E0A69597958795779575
:101D20006795BA95C9F700976105710508959B01FC
:101D3000AC010A2E06945795479537952795BA9585
:101D4000C9F7620F731F841F951FA01D0895F89493
:021D5000FFCFC3
:101D520040210B0000000000008006000100000886
:0A1D62000000050100000000000071
:00000001FF
